:020000040000FA
:0400000000000528CF
:08000800E628831603132030E3
:10001000850009148130860088018701AB01AA019F
:100020004B309F008312031361309F00F0308B0030
:100030002114870188010000831603138101011731
:10004000831603137C3092008C1483160313013043
:10005000AA00AD2183120313383092003830CF202C
:100060000C30CF2083120313861FA820861F36284A
:100070002418CC201F150C1F3B280C139F1D452056
:100080009F195520A1007F203228241065201E08CA
:10009000A000553E031808342008843E0318043499
:1000A0002008B23E031802340134241072201E08C6
:1000B000A000803E031808342008BF3E0318043413
:1000C0002008FF3E0318023401343830CF20863038
:1000D000CF204130D7205530D7205430D7204F3053
:1000E000D72008003830CF208630CF204D30D720A1
:1000F0004130D7204E30D7205530D7200800C230AD
:10010000CF2021183030A118313021193230A119F7
:100110003330D7203030D7203030D7203030D72080
:100120005230D7205030D7204D30D7202030D72024
:1001300021183030A118313021193230A119333053
:10014000D7203030D7204330D720DF30D7200800E9
:1001500024140130CF208130CF205330D720793084
:10016000D7207330D7207430D7206530D7206D303A
:10017000D7202030D7206930D7206E30D7202030CC
:10018000D7204830D7206F30D7206C30D72064304C
:10019000D7200130A10008000130CF2008008800DE
:1001A00086108615000086110611DE2008008800E2
:1001B0008614861500008611061108001030A30071
:1001C000A201A20BE128A30BE1280800831203136C
:1001D000A500030EA6008B18F228831203138C1CB3
:1001E0005529FC28831203131F08083A9F008B101F
:1001F000260E830025080900831203138C10831632
:100200000313AB0B04290A2983120313260E830060
:10021000250809008312031312118B160B11AD214F
:1002200083120313211C2129831203130710831641
:1002300003132C30AA0083120313260E8300250813
:10024000090083120313A11C322983120313071020
:10025000831603131D30AA0083120313260E830096
:100260002508090083120313211D43298312031358
:100270000710831603130E30AA0083120313260EF1
:100280008300250809008312031307148312031344
:100290008B1212159101831603132C30AB008312BD
:1002A0000313260E8300250809000B11AD21AA0BAC
:1002B0005A29602983120313260E8300250809009A
:1002C0008B12831203131215831203138C109101E6
:1002D00083120313211C7E298312031307108B162C
:1002E000AD21831203131211831603132C30AA00BD
:1002F00083120313260E83002508090083120313BB
:10030000A11C8F29831203130714831603130F30C4
:10031000AB0083120313260E830025080900831205
:100320000313211DA029831203130714831603133B
:100330001E30AB0083120313260E8300250809002C
:10034000831203130714831603132C30AB0083129C
:100350000313260E83002508090083120313863039
:0C03600081008316031342308100080066
:02400E0039393E
:00000001FF
